:020000040800F2
:100000001804002045010008130C00080B0C000820
:100010000F0C00089F040008350E000800000000C7
:10002000000000000000000000000000E50C0008D7
:100030005508000800000000C10C0008D10D0008A0
:100040005F0100085F0100085F0100085F01000810
:100050005F0100085F010008290900085F0100082E
:100060005F0100085F0100085F0100085F010008F0
:100070005F0100085F0100085F0100085F010008E0
:100080005F0100085F0100085F0100085F010008D0
:100090005F0100085F0100085F0100085F010008C0
:1000A0005F0100085F0100085F0100085F010008B0
:1000B0005F0100085F0100085F0100085F010008A0
:1000C0005F0100085F0100085F0100085F01000890
:1000D0005F0100085F0100085F0100085F01000880
:1000E0005F0100085F0100085F0100085F01000870
:1000F0005F0100085F0100085F0100085F01000860
:100100005F0100085F0100085F0100085F0100084F
:100110005F0100085F0100085F0100085F0100083F
:100120005F0100085F0100085F0100085F0100082F
:10013000DFF80CD000F092F900480047570E000895
:10014000180400200648804706480047FEE7FEE7FF
:10015000FEE7FEE7FEE7FEE7FEE7FEE7FEE7FEE777
:10016000D50D0008310100082DE9FE4F81EA030496
:1001700004F0004421F0004100944FF0000B23F004
:10018000004350EA01045ED052EA03045BD0C3F39B
:100190000A54C1F30A552C44A4F2F3340194A0FB91
:1001A0000254C1F3130141F48011C3F3130343F468
:1001B000801301FB024400FB034E840A970A44EAC1
:1001C000815447EA8357A4FB076802958D0A05FB13
:1001D00007854FEA932C04FB0C542705029D4FEA38
:1001E000065847EA1637B5EB08056EEB070C870E85
:1001F000920E47EA811742EA8312A7FB0201B6EB8F
:100200000B0164EB00042B0D43EA0C335E1844EB46
:100210001C50DA465146E7FB0201C5F313044FEACE
:100220000B3343EA14534FEA0432019C43EA0603BA
:10023000A4F10C040294009CCDE900B400F0C0F8D5
:1002400003B0BDE8F08F00200146F9E72DE9F04D3D
:1002500081EA030404F0004B21F0004514464FF0FE
:10026000000A23F0004150EA050220D054EA0102BE
:100270001DD0C5F30A570246C5F31303C1F313009B
:10028000C1F30A5640F4801543F48013A7EB060827
:10029000101BD64608F2FD3873EB050002D308F1B7
:1002A000010801E092185B41B8F1000F03DA002069
:1002B0000146BDE8F08D00204FF4801106468446CB
:1002C0000EE0171B73EB050705D3121B63EB050349
:1002D00006434CEA010C49084FEA300092185B4192
:1002E00050EA0107EDD152EA030012D082EA04007D
:1002F00083EA0501084305D0101BAB4106D2012259
:10030000002306E000224FF0004302E06FF00102FC
:1003100053101AEB06004CEB085110EB0A0041EBAE
:100320000B01BDE8F04D00F03CB80EB540F2334192
:1003300002910021CDE900110A460B4600F040F879
:1003400003B000BD70B5C1F30A5201F000450024AE
:10035000C1F3130140F2FF3341F480119A4201DAF4
:10036000002070BD40F233439A42A2F2334203DCD4
:10037000524200F006F800E090402C43F1D0404299
:1003800070BD202A04DB203A21FA02F000217047D8
:1003900021FA02F3D040C2F12002914008431946ED
:1003A000704710B5141E73F1000408DA401C41F1C7
:1003B000000192185B411A4301D120F0010010BDE9
:1003C0002DE9F04D92469B4611B1B1FA81F202E05F
:1003D000B0FA80F22032904600F052F804460F4600
:1003E00040EA0A0041EA0B0153465A46084313D03B
:1003F000114653EA010019D0C8F140025046FFF7F8
:10040000C0FF05460E4650465946424600F038F8B1
:10041000084305D0012004E020463946BDE8F08DB0
:100420000020054346EAE0762C4337430A986305EB
:10043000E40AA0EB08000022FD0A44EA47540A300F
:1004400002D500200146E9E7010510196941DDE9FF
:10045000084500196941BDE8F04DA2E7064C074D7B
:1004600006E0E06840F0010394E807009847103484
:10047000AC42F6D3FFF760FE640E0008840E00085D
:10048000202A04DB203A00FA02F100207047914054
:10049000C2F1200320FA03F319439040704700BFD4
:1004A000FEE7000070B505460C46012D06D0022D72
:1004B0000AD0032D0DD0042D16D110E04FF40041C9
:1004C0007E4800F0A0FB0FE080217D4800F09BFB00
:1004D0000AE04FF48071794800F095FB04E0802138
:1004E000764800F090FB00BF00BF0A2C20D2DFE866
:1004F00004F005202A41586A809AA9C84FF48071F7
:100500006F4800F07EFB4FF400716C4800F079FBFF
:1005100020216A4800F075FB0221684800F071FB59
:100520000421664800F06DFB4021654800F069FB3E
:10053000C2E04FF40071614800F063FB20215F4886
:1005400000F05FFBB8E04FF480715D4800F059FBAC
:100550004FF40071594800F054FB0221574800F055
:1005600050FB0421554800F04CFB4021534800F05B
:1005700048FBA1E04FF48071514800F042FB4FF47A
:1005800000714E4800F03DFB20214C4800F039FB43
:1005900002214A4800F035FB4021484800F031FB79
:1005A0008AE04FF40071454800F02BFB20214348BE
:1005B00000F027FB4021424800F023FB40213F4848
:1005C00000F01FFB78E04FF480713D4800F019FB0C
:1005D00020213A4800F015FB0221384800F011FBB9
:1005E0004021374800F00DFB4021344800F009FB62
:1005F00062E04FF48071324800F003FB20212F4865
:1006000000F0FFFA02212D4800F0FBFA04212B48EC
:1006100000F0F7FA40212A4800F0F3FA4021274879
:1006200000F0EFFA48E04FF48071254800F0E9FA55
:100630004FF40071214800F0E4FA20211F4800F037
:10064000E0FA39E04FF480711D4800F0DAFA4FF417
:1006500000711A4800F0D5FA2021184800F0D1FAAC
:100660000221164800F0CDFA0421144800F0C9FA1E
:100670004021134800F0C5FA4021104800F0C1FAAB
:100680001AE04FF480710E4800F0BBFA4FF400718D
:100690000A4800F0B6FA2021084800F0B2FA022118
:1006A000064800F0AEFA4021054800F0AAFA4021C1
:1006B000024800F0A6FA00BF00BF70BD000C014068
:1006C0000008014010B50421174800F09CFA0221EF
:1006D000154800F098FA2021134800F094FA4021C0
:1006E000114800F090FA4FF400710F4800F08BFAB7
:1006F00040210E4800F087FA4FF480710B4800F05B
:1007000082FA8021084800F07CFA4FF48071064894
:1007100000F077FA8021054800F073FA4FF40041A9
:10072000014800F06EFA10BD000C014000080140C5
:1007300008B501210C2000F0C5FA0420ADF8000036
:1007400010208DF8030003208DF8020069463F4811
:1007500000F0CCF90220ADF8000069463B4800F0FB
:10076000C5F92020ADF800006946384800F0BEF910
:100770004020ADF800006946344800F0B7F94FF466
:100780000070ADF800006946304800F0AFF9402035
:10079000ADF8000069462E4800F0A8F94FF48070CB
:1007A000ADF8000069462A4800F0A0F98020ADF8B5
:1007B00000006946254800F099F94FF48070ADF8C3
:1007C00000006946214800F091F98020ADF8000052
:1007D00069461F4800F08AF94FF40040ADF8000068
:1007E00069461A4800F082F90421184800F00BFA13
:1007F0000221164800F007FA2021144800F003FAFD
:100800004021124800F0FFF94FF400710F4800F04A
:10081000FAF940210E4800F0F6F94FF480710C48C7
:1008200000F0F1F98021094800F0EBF94FF48071F4
:10083000064800F0E6F98021054800F0E2F94FF49F
:100840000041024800F0DDF908BD0000000C014045
:10085000000801407047002000E0401CB0F5805FB8
:10086000FBDB704700222C4B2C4903C9FFF77CFCB3
:100870000746FFF767FD0A2190FBF1F201FB120921
:100880000022274B254903C9FFF76EFC0746FFF7F7
:1008900059FD0A2190FBF1F201FB12060022214BC7
:1008A0001E4903C9FFF760FC0746FFF74BFD0A210D
:1008B00090FBF1F201FB12050022194B174903C905
:1008C000FFF7C4FC0746FFF73DFD0A2190FBF1F25C
:1008D00001FB12041FE021460120FFF7E3FDFFF7B3
:1008E000BAFFFFF7EFFE29460220FFF7DBFDFFF717
:1008F000B2FFFFF7E7FE31460320FFF7D3FDFFF716
:10090000AAFFFFF7DFFE49460420FFF7CBFDFFF704
:10091000A2FFFFF7D7FEDEE70000594010000020DD
:10092000000024400000F03F70B5012000F036F8D0
:1009300018B31248006838B94FF0FF30104908600A
:1009400001200E49086015E04FF0FF300D490860A6
:1009500009680B4A1268881AFFF7E7FC0446002270
:10096000094BFFF773FC094A03C2002003490860E2
:10097000FFF778FF012000F00BF870BD08000020A1
:10098000000000200400002000005940100000205A
:10099000014908607047000014040140014600202E
:1009A0000022074B1B6803EA0102054B14331B6846
:1009B0000B4013B10AB1012000E000207047000095
:1009C00000040140002123498279002A3AD00A46D6
:1009D000126803689A430B461A600A1D126803687E
:1009E0009A430B1D1A60027911440A6803681A437E
:1009F0000A60184A0832126803689A43154B083394
:100A00001A601A1D126803689A43124B0C331A605D
:100A10004279102A0ED11A1F126803681A430D4B2F
:100A200008331A601A1D126803681A43094B0C3305
:100A30001A600DE00749427911440A6803681A43B5
:100A40000A6005E0027911440A6803689A430A6063
:100A500070470000000401400EB50121052000F0A0
:100A600031F900F00FF91020ADF8080004208DF8DE
:100A70000B0003208DF80A0002A90B4800F036F89D
:100A80000021012000F012F80120009000208DF8D4
:100A9000040008208DF8050001208DF80600684646
:100AA000FFF790FF0EBD00000008014030B50022A6
:100AB0008B071C0F0F2303FA04F20B4B8C1053F817
:100AC00024309343084C8D1044F8253023468C1075
:100AD00053F824308C07240F00FA04F42343024C0B
:100AE0008D1044F8253030BD080001402DE9F0415B
:100AF000024600250026002000230024002791F84C
:100B000003C00CF00F0591F803C00CF0100CBCF101
:100B1000000F03D091F802C04CEA050591F800C01F
:100B2000BCF1000F31D0146800202BE04FF0010C15
:100B30000CFA00F3B1F800C00CEA03069E4220D183
:100B400083004FF00F0C0CFA03F7BC4305FA03FCCB
:100B50004CEA040491F803C0BCF1280F06D14FF011
:100B6000010C0CFA00FCC2F814C00AE091F803C0B2
:100B7000BCF1480F05D14FF0010C0CFA00FCC2F893
:100B800010C0401C0828D1D31460B1F800C0BCF1DB
:100B9000FF0F34DD546800202EE000F1080C4FF008
:100BA000010808FA0CF3B1F800C00CEA03069E42F3
:100BB00021D183004FF00F0C0CFA03F7BC4305FA68
:100BC00003FC4CEA040491F803C0BCF1280F05D1E2
:100BD00000F1080C08FA0CF8C2F8148091F803C070
:100BE000BCF1480F07D100F1080C4FF0010808FADA
:100BF0000CF8C2F81080401C0828CED35460BDE821
:100C0000F081416170470161704700BFFEE700BF9E
:100C1000FEE7704770B5002100230F22C47804B3AB
:100C2000154C246804F4E064C4F5E064210AC1F1C1
:100C30000403CA40447804FA03F184781440214341
:100C400009010E4C0678A155047804F01F05012413
:100C5000AC4005786D11AD0005F1E025C5F8004107
:100C600009E0047804F01F050124AC40044D067827
:100C7000761145F8264070BD0CED00E000E400E080
:100C800080E100E008B54FF4C06000F00FF80620E6
:100C90008DF8000001208DF801008DF802008DF81C
:100CA00003006846FFF7B6FF08BD00000249014394
:100CB000024A1160704700000000FA050CED00E0E8
:100CC0007047000029B1064A92690243044B9A61B9
:100CD00004E0034A92698243014B9A617047000025
:100CE00000100240704710B500F002F810BD00007F
:100CF0000CB50020019000903348006840F480302B
:100D00003149086000BF3048006800F400300090AE
:100D10000198401C0190009818B90198B0F5A06F97
:100D2000F1D12948006800F4003010B10120009092
:100D300001E0002000900098012843D1234800687A
:100D400040F01000214908600846006820F00300C8
:100D500008600846006840F0020008601A484068D1
:100D6000194948600846406848600846406840F4B1
:100D7000806048600846406820F47C10486008465F
:100D8000406840F4E81048600846006840F0807011
:100D9000086000BF0C48006800F000700028F9D01F
:100DA0000948406820F00300074948600846406849
:100DB00040F00200486000BF0348406800F00C00AB
:100DC0000828F9D10CBD00000010024000200240AC
:100DD0007047000010B51348006840F00100114949
:100DE000086008464068104908400E4948600846B7
:100DF00000680E4908400B4908600846006820F466
:100E0000802008600846406820F4FE0048604FF4E7
:100E10001F008860FFF767FF4FF00060044908601B
:100E200010BD0000001002400000FFF8FFFFF6FEBA
:100E300008ED00E000BFFEE702E008C8121F08C18D
:100E4000002AFAD170477047002001E001C1121F4B
:100E5000002AFBD17047FFF76BFCFFF7FDFD00BFD9
:100E6000FEE70000840E00080000002018000000CB
:100E7000380E00089C0E0008180000200004000036
:100E8000480E000800000000000000000000000004
:0C0E900000000000000000000000000056
:0400000508000131BD
:00000001FF
