:020000040800F2
:100000003804002045010008350C0008B10B000839
:10001000310C0008F90500089F11000800000000DD
:10002000000000000000000000000000F90D0008C2
:10003000AD09000800000000E30C0008E50E000810
:100040005F0100085F0100085F0100085F01000810
:100050005F0100085F0100085F0100085F01000800
:100060005F0100085F0100085F0100085F010008F0
:100070005F0100085F0100085F0100085F010008E0
:100080005F0100085F0100085F0100085F010008D0
:100090005F0100085F0100085F0100085F010008C0
:1000A0005F0100085F0100085F0100085F010008B0
:1000B0005F0100085F0100085F0100085F010008A0
:1000C0005F0100085F0100085F0100085F01000890
:1000D0005F0100085F010008490F00085F01000888
:1000E0005F0100085F0100085F0100085F01000870
:1000F0005F0100085F0100085F0100085F01000860
:100100005F0100085F0100085F0100085F0100084F
:100110005F0100085F0100085F0100085F0100083F
:100120005F0100085F0100085F0100085F0100082F
:10013000DFF80CD000F04EFA00480047B912000872
:10014000380400200648804706480047FEE7FEE7DF
:10015000FEE7FEE7FEE7FEE7FEE7FEE7FEE7FEE777
:10016000E90E0008310100082DE9FE4F804681EAC2
:100170000300C00F0C46009021F0004123F0004521
:10018000B8EB0200A94105D24046214690461C46E4
:100190000B46024623F00040104347D0270DC7F31B
:1001A0000A00C3F30A510290401A019040286BDA0A
:1001B000C3F3130040F4801B0098924620B1002343
:1001C000D2EB030A63EB0B0B01985946C0F14002D6
:1001D000504600F070F906460D4650465946019AC1
:1001E00000F088F910EB08006141002487EA115201
:1001F00084EAE7731A4340D0009A62B3019A012A55
:100200004FEA075215DC001B61EB02014FF0004280
:1002100002EA0752CDE90042001C41F58011324646
:100220002B4600F088F903B0BDE8F08F4046214628
:10023000F9E7001B61EB0201001C41F58013001877
:100240005B412018A2F5001747EB030140EAD57087
:10025000B6196D4111E06D084FEA360645EAC075E2
:100260004FEA0752001B61EB0201001C41F58011AF
:1002700049084FEA30000019514132462B4603B07D
:10028000BDE8F04F00F048B900980122400000237B
:10029000D0EB020263EBE073009821464FEAE07472
:1002A000B8EB000061EB0401E9E783F000435BE792
:1002B00081F0004158E72DE9FE4F81EA030404F084
:1002C000004421F0004100944FF0000B23F0004364
:1002D00050EA01045ED052EA03045BD0C3F30A542F
:1002E000C1F30A552C44A4F2F3340194A0FB025448
:1002F000C1F3130141F48011C3F3130343F48013DA
:1003000001FB024400FB034E840A970A44EA81542D
:1003100047EA8357A4FB076802958D0A05FB07850A
:100320004FEA932C04FB0C542705029D4FEA065814
:1003300047EA1637B5EB08056EEB070C870E920EF1
:1003400047EA811742EA8312A7FB0201B6EB0B01D1
:1003500064EB00042B0D43EA0C335E1844EB1C5095
:10036000DA465146E7FB0201C5F313044FEA0B33AB
:1003700043EA14534FEA0432019C43EA0603A4F112
:100380000C040294009CCDE900B400F0D4F803B052
:10039000BDE8F08F00200146F9E72DE9F04D81EA34
:1003A000030404F0004B21F0004514464FF0000A0E
:1003B00023F0004150EA050220D054EA01021DD08A
:1003C000C5F30A570246C5F31303C1F31300C1F383
:1003D0000A5640F4801543F48013A7EB0608101B5F
:1003E000D64608F2FD3873EB050002D308F1010888
:1003F00001E092185B41B8F1000F03DA00200146DA
:10040000BDE8F08D00204FF48011064684460EE0D2
:10041000171B73EB050705D3121B63EB050306439C
:100420004CEA010C49084FEA300092185B4150EA4F
:100430000107EDD152EA030012D082EA040083EAF8
:100440000501084305D0101BAB4106D20122002351
:1004500006E000224FF0004302E06FF0010253106B
:100460001AEB06004CEB085110EB0A0041EB0B01B4
:10047000BDE8F04D00F050B870B5C1F30A5201F07C
:1004800000450024C1F3130140F2FF3341F4801111
:100490009A4201DA002070BD40F233439A42A2F240
:1004A000334203DC524200F015F800E090402C4348
:1004B000F1D0404270BD202A04DB203A00FA02F15C
:1004C000002070479140C2F1200320FA03F3194342
:1004D00090407047202A04DB203A21FA02F00021E4
:1004E000704721FA02F3D040C2F120029140084344
:1004F00019467047202A06DBCB17203A41FA02F052
:1005000043EAE07306E041FA02F3D040C2F1200270
:10051000914008431946704710B5141E73F100044A
:1005200008DA401C41F1000192185B411A4301D1E5
:1005300020F0010010BD2DE9F04D92469B4611B10F
:10054000B1FA81F202E0B0FA80F220329046FFF771
:10055000B2FF04460F4640EA0A0041EA0B01534647
:100560005A46084313D0114653EA010019D0C8F186
:1005700040025046FFF7AEFF05460E46504659462C
:100580004246FFF798FF084305D0012004E02046CB
:100590003946BDE8F08D0020054346EAE0762C435D
:1005A00037430A986305E40AA0EB08000022FD0A1D
:1005B00044EA47540A3002D500200146E9E7010524
:1005C00010196941DDE9084500196941BDE8F04DA0
:1005D000A2E70000064C074D06E0E06840F001038A
:1005E00094E8070098471034AC42F6D3FFF7A4FD17
:1005F000F41200081413000800BFFEE770B50546AA
:100600000C46012D06D0022D0AD0032D0DD0042D4D
:1006100016D110E04FF400417E4800F0C7FA0FE019
:1006200080217D4800F0C2FA0AE04FF480717948D9
:1006300000F0BCFA04E08021764800F0B7FA00BF71
:1006400000BF0A2C20D2DFE804F005202A41586AB6
:10065000809AA9C84FF480716F4800F0A5FA4FF452
:1006600000716C4800F0A0FA20216A4800F09CFA62
:100670000221684800F098FA0421664800F094FAD4
:100680004021654800F090FAC2E04FF400716148E3
:1006900000F08AFA20215F4800F086FAB8E04FF4B3
:1006A00080715D4800F080FA4FF40071594800F005
:1006B0007BFA0221574800F077FA0421554800F0F0
:1006C00073FA4021534800F06FFAA1E04FF48071B3
:1006D000514800F069FA4FF400714E4800F064FA96
:1006E00020214C4800F060FA02214A4800F05CFAF0
:1006F0004021484800F058FA8AE04FF4007145481C
:1007000000F052FA2021434800F04EFA40214248BE
:1007100000F04AFA40213F4800F046FA78E04FF4F2
:1007200080713D4800F040FA20213A4800F03CFA40
:100730000221384800F038FA4021374800F034FAF6
:100740004021344800F030FA62E04FF480713248C2
:1007500000F02AFA20212F4800F026FA02212D4825
:1007600000F022FA04212B4800F01EFA40212A480A
:1007700000F01AFA4021274800F016FA48E04FF43A
:100780008071254800F010FA4FF40071214800F004
:100790000BFA20211F4800F007FA39E04FF480716E
:1007A0001D4800F001FA4FF400711A4800F0FCF9FE
:1007B0002021184800F0F8F90221164800F0F4F959
:1007C0000421144800F0F0F94021134800F0ECF93E
:1007D0004021104800F0E8F91AE04FF480710E480B
:1007E00000F0E2F94FF400710A4800F0DDF9202131
:1007F000084800F0D9F90221064800F0D5F9402157
:10080000054800F0D1F94021024800F0CDF900BFC1
:1008100000BF70BD000C01400008014010B504216C
:10082000174800F0C3F90221154800F0BFF9202154
:10083000134800F0BBF94021114800F0B7F94FF41C
:1008400000710F4800F0B2F940210E4800F0AEF9F7
:100850004FF480710B4800F0A9F98021084800F09E
:10086000A3F94FF48071064800F09EF980210548F5
:1008700000F09AF94FF40041014800F095F910BDDD
:10088000000C01400008014008B501210C2000F0D7
:1008900039FA0420ADF8000010208DF80300032081
:1008A0008DF8020069463F4800F0EAF80220ADF8F2
:1008B000000069463B4800F0E3F82020ADF8000056
:1008C0006946384800F0DCF84020ADF80000694681
:1008D000344800F0D5F84FF40070ADF800006946D8
:1008E000304800F0CDF84020ADF8000069462E48B1
:1008F00000F0C6F84FF48070ADF8000069462A4851
:1009000000F0BEF88020ADF800006946254800F0F0
:10091000B7F84FF48070ADF800006946214800F048
:10092000AFF88020ADF8000069461F4800F0A8F835
:100930004FF40040ADF8000069461A4800F0A0F8F6
:100940000421184800F032F90221164800F02EF96F
:100950002021144800F02AF94021124800F026F91D
:100960004FF400710F4800F021F940210E4800F0CB
:100970001DF94FF480710C4800F018F980210948E6
:1009800000F012F94FF48071064800F00DF9802153
:10099000054800F009F94FF40041024800F004F95D
:1009A00008BD0000000C0140000801407047002015
:1009B00000E0401CB0F5805FFBDB704704460D464D
:1009C00000222C4B20462946FFF775FC0746FFF70F
:1009D00053FD0A2190FBF1F201FB120B0022264B82
:1009E00020462946FFF767FC0746FFF745FD0A2129
:1009F00090FBF1F201FB120A0022204B204629460F
:100A0000FFF759FC0746FFF737FD0A2190FBF1F28B
:100A100001FB12090022184B20462946FFF7BDFCB6
:100A20000746FFF729FD0A2190FBF1F201FB1206B0
:100A30001FE031460120FFF7E1FDFFF7B8FFFFF7A8
:100A4000EDFE49460220FFF7D9FDFFF7B0FFFFF7A3
:100A5000E5FE51460320FFF7D1FDFFF7A8FFFFF7A2
:100A6000DDFE59460420FFF7C9FDFFF7A0FFFFF7A1
:100A7000D5FEDEE700005940000024400000F03FB2
:100A80002DE9F04102460025002600200023002425
:100A9000002791F803C00CF00F0591F803C00CF08B
:100AA000100CBCF1000F03D091F802C04CEA050510
:100AB00091F800C0BCF1000F31D0146800202BE089
:100AC0004FF0010C0CFA00F3B1F800C00CEA030679
:100AD0009E4220D183004FF00F0C0CFA03F7BC4369
:100AE00005FA03FC4CEA040491F803C0BCF1280F9A
:100AF00006D14FF0010C0CFA00FCC2F814C00AE059
:100B000091F803C0BCF1480F05D14FF0010C0CFA6D
:100B100000FCC2F810C0401C0828D1D31460B1F802
:100B200000C0BCF1FF0F34DD546800202EE000F15E
:100B3000080C4FF0010808FA0CF3B1F800C00CEAF9
:100B400003069E4221D183004FF00F0C0CFA03F7ED
:100B5000BC4305FA03FC4CEA040491F803C0BCF161
:100B6000280F05D100F1080C08FA0CF8C2F814801F
:100B700091F803C0BCF1480F07D100F1080C4FF009
:100B8000010808FA0CF8C2F81080401C0828CED3DF
:100B90005460BDE8F0810246002093680B400BB121
:100BA000012000E0002070474161704701617047FB
:100BB00000BFFEE708B50121082000F0A3F81020CF
:100BC0008DF8030003208DF802004FF40050ADF8BB
:100BD000000069460A48FFF753FF4FF48040ADF824
:100BE000000069460648FFF74BFF4FF48041044878
:100BF000FFF7DAFF4FF400510148FFF7D5FF08BDBA
:100C0000000C014008B50121042000F07BF82020F1
:100C1000ADF8000004208DF8030003208DF80200D9
:100C200069460248FFF72CFF08BD0000000801409C
:100C300000BFFEE77047000070B5002100230F22BF
:100C4000C47804B3154C246804F4E064C4F5E0648B
:100C5000210AC1F10403CA40447804FA03F18478FC
:100C60001440214309010E4C0678A155047804F084
:100C70001F050124AC4005786D11AD0005F1E0259C
:100C8000C5F8004109E0047804F01F050124AC40D8
:100C9000044D0678761145F8264070BD0CED00E055
:100CA00000E400E080E100E002490143024A1160F3
:100CB000704700000000FA050CED00E008B54FF4A5
:100CC000A060FFF7F1FF26208DF8000001208DF8CD
:100CD00001008DF802008DF803006846FFF7ACFFB5
:100CE00008BD704729B1064AD2690243044BDA6154
:100CF00004E0034AD2698243014BDA617047000085
:100D00000010024029B1064A92690243044B9A61DD
:100D100004E0034A92698243014B9A6170470000E4
:100D20000010024030B500210022002400232D4D88
:100D30006D6805F00C0121B1042905D0082923D1E3
:100D400005E0294D056022E0274D05601FE0254D97
:100D50006D6805F47012234D6D6805F4803402252A
:100D600005EB92421CB9214D554305600BE01D4D2A
:100D70006D6805F400351DB11C4D5543056002E05A
:100D8000194D5543056002E0174D056000BF00BFD7
:100D9000144D6D6805F0F0010909154D6B5C05688F
:100DA000DD4045600F4D6D6805F4E061090A104DA6
:100DB0006B5C4568DD4085600A4D6D6805F46051E7
:100DC000C90A0B4D6B5C4568DD40C560054D6D681B
:100DD00005F44041890B074D6B5CC568B5FBF3F525
:100DE000056130BD0010024000127A0000093D008C
:100DF0001400002024000020704710B500F002F815
:100E000010BD00000CB50020019000903348006830
:100E100040F480303149086000BF3048006800F479
:100E2000003000900198401C0190009818B901987A
:100E3000B0F5A06FF1D12948006800F4003010B17E
:100E40000120009001E0002000900098012843D18B
:100E50002348006840F010002149086008460068F7
:100E600020F0030008600846006840F002000860B7
:100E70001A48406819494860084640684860084672
:100E8000406840F4806048600846406820F47C1068
:100E900048600846406840F4E8104860084600682A
:100EA00040F08070086000BF0C48006800F00070DF
:100EB0000028F9D00948406820F00300074948603D
:100EC0000846406840F00200486000BF03484068A0
:100ED00000F00C000828F9D10CBD00000010024001
:100EE000002002407047000010B51348006840F031
:100EF00001001149086008464068104908400E4941
:100F00004860084600680E4908400B4908600846DA
:100F1000006820F4802008600846406820F4FE0045
:100F200048604FF41F008860FFF767FF4FF00060D4
:100F30000449086010BD0000001002400000FFF8E6
:100F4000FFFFF6FE08ED00E010B540F2255108481D
:100F500000F064F858B1064800F01CF9C4B2732CD4
:100F600005D10448006810B901200249086010BD8D
:100F7000004400402800002021B1828942F4005240
:100F8000828104E082894DF6FF731A4082817047A6
:100F900000B585B001210420FFF7B4FE012148040B
:100FA000FFF7A0FE0420ADF8100018208DF8130004
:100FB00003208DF8120004A91648FFF761FD0820F0
:100FC000ADF8100004208DF8130004A91148FFF7B4
:100FD00057FD4FF4E13000900020ADF80400ADF86B
:100FE0000600ADF80800ADF80C000C20ADF80A00C2
:100FF0006946094800F062F8FFF760FE012240F2FE
:101000002551054800F034F801210348FFF7B4FFEB
:1010100005B000BD000801400044004070B5024624
:10102000002400230025002040F66A16B14200D1BA
:1010300000BFC1F3421501F01F03012606FA03F3B6
:10104000012D02D19689334006E0022D02D1168A85
:10105000334001E0968A33400C12012606FA04F46C
:101060001688344013B10CB1012000E0002070BD9F
:10107000F0B50346002400260025002040F66A173C
:10108000B94200D100BF1846C1F3421401F01F0657
:10109000012707FA06F5012C01D10C3004E0022CDF
:1010A00001D1103000E014301AB107682F430760F7
:1010B00002E00768AF430760F0BD00002DE9F0478C
:1010C00086B005460E460024A24600BFA146002772
:1010D000B08900B100BF2F462C8A4CF6FF70044047
:1010E000F08804432C82AC894EF6F3100440B0889B
:1010F00031890843718908430443AC81AC8A4FF6B7
:10110000FF400440B0890443AC8201A8FFF70AFE07
:101110001F48874202D1DDF810A001E0DDF80CA0E5
:10112000A88900F4004040B10AEBCA0000EB0A10A5
:1011300031684900B0FBF1F807E00AEBCA0000EBA8
:101140000A1031688900B0FBF1F86420B8FBF0F0B8
:1011500004012009642101FB1089A88900F40040E2
:1011600040B1322000EBC900B0FBF1F000F0070005
:10117000044308E0322000EB09106421B0FBF1F0D9
:1011800000F00F0004432C8106B0BDE8F08700009A
:101190000038014001468888C0F30800704700BF4E
:1011A000FEE702E008C8121F08C1002AFAD1704702
:1011B0007047002001E001C1121F002AFBD17047D7
:1011C00070B5354800684FF47A72B0FBF2F1B1F1B6
:1011D000807F00D31DE021F07F40401E4FF0E022D1
:1011E000506150170F22002807DA13071D0E2B4BF2
:1011F00000F00F04241F1D5503E013071C0E284B9D
:101200001C5400BF00204FF0E022906107201061C5
:1012100000BF36E02348006850B920212248FFF77C
:10122000BAFC012804D141032048FFF7BFFC28E0A5
:101230001C480068012824D120211B48FFF7ABFC83
:1012400001281ED10FE000BF4FF0E020006900F43C
:1012500080300028F8D00022154B164903C9FEF74C
:1012600083FF144A03C220210F48FFF794FC012892
:10127000E9D002200B49086001030C48FFF794FCF9
:1012800000E0C7E700BF4FF0E020006920F0010058
:101290004FF0E021086170BD0000002018ED00E073
:1012A00000E400E02800002000080140000C01409C
:1012B0000000F03F30000020FFF7A4FCFFF768FEBD
:1012C000FFF778FCFFF7E0FA0DE000200649086020
:1012D000FFF776FF0022054B054903C9FFF75DF8CC
:1012E0000446FFF76BFBF0E72800002000408F402A
:1012F0003000002014130008000000203800000017
:10130000A21100084C13000838000020000400005F
:10131000B211000800A24A04000000000000000012
:10132000010203040607080900000000010203048B
:101330000102030406070809020406080000000071
:0C134000000000000000000000000000A1
:0400000508000131BD
:00000001FF
