:020000040800F2
:100000002004002045010008E50A0008610A0008F4
:10001000E10A0008A7040008590C000800000000CD
:10002000000000000000000000000000090B0008B4
:100030005D08000800000000E70A0008F50B000852
:100040005F0100085F0100085F0100085F01000810
:100050005F0100085F0100085F0100085F01000800
:100060005F0100085F0100085F0100085F010008F0
:100070005F0100085F0100085F0100085F010008E0
:100080005F0100085F0100085F0100085F010008D0
:100090005F0100085F0100085F0100085F010008C0
:1000A0005F0100085F0100085F0100085F010008B0
:1000B0005F0100085F0100085F0100085F010008A0
:1000C0005F0100085F0100085F0100085F01000890
:1000D0005F0100085F0100085F0100085F01000880
:1000E0005F0100085F0100085F0100085F01000870
:1000F0005F0100085F0100085F0100085F01000860
:100100005F0100085F0100085F0100085F0100084F
:100110005F0100085F0100085F0100085F0100083F
:100120005F0100085F0100085F0100085F0100082F
:10013000DFF80CD000F096F9004800476D0D00087C
:10014000200400200648804706480047FEE7FEE7F7
:10015000FEE7FEE7FEE7FEE7FEE7FEE7FEE7FEE777
:10016000F90B0008310100082DE9FE4F81EA030474
:1001700004F0004421F0004100944FF0000B23F004
:10018000004350EA01045ED052EA03045BD0C3F39B
:100190000A54C1F30A552C44A4F2F3340194A0FB91
:1001A0000254C1F3130141F48011C3F3130343F468
:1001B000801301FB024400FB034E840A970A44EAC1
:1001C000815447EA8357A4FB076802958D0A05FB13
:1001D00007854FEA932C04FB0C542705029D4FEA38
:1001E000065847EA1637B5EB08056EEB070C870E85
:1001F000920E47EA811742EA8312A7FB0201B6EB8F
:100200000B0164EB00042B0D43EA0C335E1844EB46
:100210001C50DA465146E7FB0201C5F313044FEACE
:100220000B3343EA14534FEA0432019C43EA0603BA
:10023000A4F10C040294009CCDE900B400F0C4F8D1
:1002400003B0BDE8F08F00200146F9E72DE9F04D3D
:1002500081EA030404F0004B21F0004514464FF0FE
:10026000000A23F0004150EA050220D054EA0102BE
:100270001DD0C5F30A570246C5F31303C1F313009B
:10028000C1F30A5640F4801543F48013A7EB060827
:10029000101BD64608F2FD3873EB050002D308F1B7
:1002A000010801E092185B41B8F1000F03DA002069
:1002B0000146BDE8F08D00204FF4801106468446CB
:1002C0000EE0171B73EB050705D3121B63EB050349
:1002D00006434CEA010C49084FEA300092185B4192
:1002E00050EA0107EDD152EA030012D082EA04007D
:1002F00083EA0501084305D0101BAB4106D2012259
:10030000002306E000224FF0004302E06FF00102FC
:1003100053101AEB06004CEB085110EB0A0041EBAE
:100320000B01BDE8F04D00F040B80EB5C10F80EAFA
:10033000E0700844CA07002140F233438DE80E0004
:100340000A460B4600F040F803B000BD70B5C1F39B
:100350000A5201F000450024C1F3130140F2FF33BB
:1003600041F480119A4201DA002070BD40F233431B
:100370009A42A2F2334203DC524200F006F800E057
:1003800090402C43F1D0404270BD202A04DB203A3B
:1003900021FA02F00021704721FA02F3D040C2F1A5
:1003A0002002914008431946704710B5141E73F19E
:1003B000000408DA401C41F1000192185B411A4325
:1003C00001D120F0010010BD2DE9F04D92469B4671
:1003D00011B1B1FA81F202E0B0FA80F22032904617
:1003E00000F052F804460F4640EA0A0041EA0B01C9
:1003F00053465A46084313D0114653EA010019D018
:10040000C8F140025046FFF7C0FF05460E46504671
:100410005946424600F038F8084305D0012004E070
:1004200020463946BDE8F08D0020054346EAE076D7
:100430002C4337430A986305E40AA0EB0800002226
:10044000FD0A44EA47540A3002D500200146E9E794
:10045000010510196941DDE9084500196941BDE848
:10046000F04DA2E7064C074D06E0E06840F00103BE
:1004700094E8070098471034AC42F6D3FFF75CFECF
:10048000A80D0008C80D0008202A04DB203A00FA55
:1004900002F1002070479140C2F1200320FA03F3DB
:1004A00019439040704700BFFEE7000070B5054655
:1004B0000C46012D06D0022D0AD0032D0DD0042D9F
:1004C00016D110E04FF400417E4800F0C7FA0FE06B
:1004D00080217D4800F0C2FA0AE04FF4807179482B
:1004E00000F0BCFA04E08021764800F0B7FA00BFC3
:1004F00000BF0A2C20D2DFE804F005202A41586A08
:10050000809AA9C84FF480716F4800F0A5FA4FF4A3
:1005100000716C4800F0A0FA20216A4800F09CFAB3
:100520000221684800F098FA0421664800F094FA25
:100530004021654800F090FAC2E04FF40071614834
:1005400000F08AFA20215F4800F086FAB8E04FF404
:1005500080715D4800F080FA4FF40071594800F056
:100560007BFA0221574800F077FA0421554800F041
:1005700073FA4021534800F06FFAA1E04FF4807104
:10058000514800F069FA4FF400714E4800F064FAE7
:1005900020214C4800F060FA02214A4800F05CFA41
:1005A0004021484800F058FA8AE04FF4007145486D
:1005B00000F052FA2021434800F04EFA4021424810
:1005C00000F04AFA40213F4800F046FA78E04FF444
:1005D00080713D4800F040FA20213A4800F03CFA92
:1005E0000221384800F038FA4021374800F034FA48
:1005F0004021344800F030FA62E04FF48071324814
:1006000000F02AFA20212F4800F026FA02212D4876
:1006100000F022FA04212B4800F01EFA40212A485B
:1006200000F01AFA4021274800F016FA48E04FF48B
:100630008071254800F010FA4FF40071214800F055
:100640000BFA20211F4800F007FA39E04FF48071BF
:100650001D4800F001FA4FF400711A4800F0FCF94F
:100660002021184800F0F8F90221164800F0F4F9AA
:100670000421144800F0F0F94021134800F0ECF98F
:100680004021104800F0E8F91AE04FF480710E485C
:1006900000F0E2F94FF400710A4800F0DDF9202182
:1006A000084800F0D9F90221064800F0D5F94021A8
:1006B000054800F0D1F94021024800F0CDF900BF13
:1006C00000BF70BD000C01400008014010B50421BE
:1006D000174800F0C3F90221154800F0BFF92021A6
:1006E000134800F0BBF94021114800F0B7F94FF46E
:1006F00000710F4800F0B2F940210E4800F0AEF949
:100700004FF480710B4800F0A9F98021084800F0EF
:10071000A3F94FF48071064800F09EF98021054846
:1007200000F09AF94FF40041014800F095F910BD2E
:10073000000C01400008014008B501210C2000F028
:10074000D3F90420ADF8000010208DF80300032039
:100750008DF8020069463F4800F0EAF80220ADF843
:10076000000069463B4800F0E3F82020ADF80000A7
:100770006946384800F0DCF84020ADF800006946D2
:10078000344800F0D5F84FF40070ADF80000694629
:10079000304800F0CDF84020ADF8000069462E4802
:1007A00000F0C6F84FF48070ADF8000069462A48A2
:1007B00000F0BEF88020ADF800006946254800F042
:1007C000B7F84FF48070ADF800006946214800F09A
:1007D000AFF88020ADF8000069461F4800F0A8F887
:1007E0004FF40040ADF8000069461A4800F0A0F848
:1007F0000421184800F032F90221164800F02EF9C1
:100800002021144800F02AF94021124800F026F96E
:100810004FF400710F4800F021F940210E4800F01C
:100820001DF94FF480710C4800F018F98021094837
:1008300000F012F94FF48071064800F00DF98021A4
:10084000054800F009F94FF40041024800F004F9AE
:1008500008BD0000000C0140000801407047002066
:1008600000E0401CB0F5805FFBDB704704460D469E
:1008700000222C4B20462946FFF776FC0746FFF75F
:1008800065FD0A2190FBF1F201FB120B0022264BC1
:1008900020462946FFF768FC0746FFF757FD0A2167
:1008A00090FBF1F201FB120A0022204B2046294660
:1008B000FFF75AFC0746FFF749FD0A2190FBF1F2CA
:1008C00001FB12090022184B20462946FFF7BEFC07
:1008D0000746FFF73BFD0A2190FBF1F201FB1206F0
:1008E0001FE031460120FFF7E1FDFFF7B8FFFFF7FA
:1008F000EDFE49460220FFF7D9FDFFF7B0FFFFF7F5
:10090000E5FE51460320FFF7D1FDFFF7A8FFFFF7F3
:10091000DDFE59460420FFF7C9FDFFF7A0FFFFF7F2
:10092000D5FEDEE700005940000024400000F03F03
:100930002DE9F04102460025002600200023002476
:10094000002791F803C00CF00F0591F803C00CF0DC
:10095000100CBCF1000F03D091F802C04CEA050561
:1009600091F800C0BCF1000F31D0146800202BE0DA
:100970004FF0010C0CFA00F3B1F800C00CEA0306CA
:100980009E4220D183004FF00F0C0CFA03F7BC43BA
:1009900005FA03FC4CEA040491F803C0BCF1280FEB
:1009A00006D14FF0010C0CFA00FCC2F814C00AE0AA
:1009B00091F803C0BCF1480F05D14FF0010C0CFABF
:1009C00000FCC2F810C0401C0828D1D31460B1F854
:1009D00000C0BCF1FF0F34DD546800202EE000F1B0
:1009E000080C4FF0010808FA0CF3B1F800C00CEA4B
:1009F00003069E4221D183004FF00F0C0CFA03F73F
:100A0000BC4305FA03FC4CEA040491F803C0BCF1B2
:100A1000280F05D100F1080C08FA0CF8C2F8148070
:100A200091F803C0BCF1480F07D100F1080C4FF05A
:100A3000010808FA0CF8C2F81080401C0828CED330
:100A40005460BDE8F0810246002093680B400BB172
:100A5000012000E00020704741617047016170474C
:100A600000BFFEE708B50121082000F03DF8102086
:100A70008DF8030003208DF802004FF40050ADF80C
:100A8000000069460A48FFF753FF4FF48040ADF875
:100A9000000069460648FFF74BFF4FF480410448C9
:100AA000FFF7DAFF4FF400510148FFF7D5FF08BD0B
:100AB000000C014008B50121042000F015F82020A9
:100AC000ADF8000004208DF8030003208DF802002B
:100AD00069460248FFF72CFF08BD000000080140EE
:100AE00000BFFEE77047704729B1064A926902438A
:100AF000044B9A6104E0034A92698243014B9A6174
:100B00007047000000100240704710B500F002F876
:100B100010BD00000CB50020019000903348006823
:100B200040F480303149086000BF3048006800F46C
:100B3000003000900198401C0190009818B901986D
:100B4000B0F5A06FF1D12948006800F4003010B171
:100B50000120009001E0002000900098012843D17E
:100B60002348006840F010002149086008460068EA
:100B700020F0030008600846006840F002000860AA
:100B80001A48406819494860084640684860084665
:100B9000406840F4806048600846406820F47C105B
:100BA00048600846406840F4E8104860084600681D
:100BB00040F08070086000BF0C48006800F00070D2
:100BC0000028F9D00948406820F003000749486030
:100BD0000846406840F00200486000BF0348406893
:100BE00000F00C000828F9D10CBD000000100240F4
:100BF000002002407047000010B51348006840F024
:100C000001001149086008464068104908400E4933
:100C10004860084600680E4908400B4908600846CD
:100C2000006820F4802008600846406820F4FE0038
:100C300048604FF41F008860FFF767FF4FF00060C7
:100C40000449086010BD0000001002400000FFF8D9
:100C5000FFFFF6FE08ED00E000BFFEE702E008C877
:100C6000121F08C1002AFAD170477047002001E026
:100C700001C1121F002AFBD17047000070B5354832
:100C800000684FF47A72B0FBF2F1B1F1807F00D3CB
:100C90001DE021F07F40401E4FF0E02250615017D0
:100CA0000F22002807DA13071D0E2B4B00F00F044C
:100CB000241F1D5503E013071C0E284B1C5400BFB6
:100CC00000204FF0E02290610720106100BF35E066
:100CD0002348006880B920212248FFF7B4FE01288C
:100CE0000AD100BF20211F48FFF7ADFE0128F9D02F
:100CF00001201B49086021E01948006801281DD126
:100D000020211848FFF79FFE012817D10CE000BFF3
:100D10004FF0E020006900F480300028F8D012483D
:100D20000068401C1049086020210E48FFF78BFE28
:100D30000128ECD002200A49086000E0C8E700BFA3
:100D40004FF0E020006920F001004FF0E021086141
:100D500070BD00000000002018ED00E000E400E09D
:100D6000140000200008014018000020FFF7A2FE38
:100D7000FFF778FEFFF7E0FC10E00020084908606C
:100D8000FFF77CFF074800684FF47A7190FBF1F49D
:100D90002046FFF7CAFA0546FFF768FDEDE70000B9
:100DA0001400002018000020C80D000800000020DA
:100DB0001C0000005C0C0008E40D00081C00002072
:100DC000040400006C0C000800A24A0400000000AB
:100DD00000000000010203040607080900000000EB
:040DE000000000000F
:0400000508000131BD
:00000001FF
