:020000040800F2
:1000000028040020450100085D0C0008D90B0008F9
:10001000590C0008F9050008D10D00080000000087
:10002000000000000000000000000000810C00083B
:10003000D5090008000000005F0C00086D0D0008E5
:100040005F0100085F0100085F0100085F01000810
:100050005F0100085F0100085F0100085F01000800
:100060005F0100085F0100085F0100085F010008F0
:100070005F0100085F0100085F0100085F010008E0
:100080005F0100085F0100085F0100085F010008D0
:100090005F0100085F0100085F0100085F010008C0
:1000A0005F0100085F0100085F0100085F010008B0
:1000B0005F0100085F0100085F0100085F010008A0
:1000C0005F0100085F0100085F0100085F01000890
:1000D0005F0100085F0100085F0100085F01000880
:1000E0005F0100085F0100085F0100085F01000870
:1000F0005F0100085F0100085F0100085F01000860
:100100005F0100085F0100085F0100085F0100084F
:100110005F0100085F0100085F0100085F0100083F
:100120005F0100085F0100085F0100085F0100082F
:10013000DFF80CD000F04EFA00480047010F00082D
:10014000280400200648804706480047FEE7FEE7EF
:10015000FEE7FEE7FEE7FEE7FEE7FEE7FEE7FEE777
:10016000710D0008310100082DE9FE4F804681EA3B
:100170000300C00F0C46009021F0004123F0004521
:10018000B8EB0200A94105D24046214690461C46E4
:100190000B46024623F00040104347D0270DC7F31B
:1001A0000A00C3F30A510290401A019040286BDA0A
:1001B000C3F3130040F4801B0098924620B1002343
:1001C000D2EB030A63EB0B0B01985946C0F14002D6
:1001D000504600F070F906460D4650465946019AC1
:1001E00000F088F910EB08006141002487EA115201
:1001F00084EAE7731A4340D0009A62B3019A012A55
:100200004FEA075215DC001B61EB02014FF0004280
:1002100002EA0752CDE90042001C41F58011324646
:100220002B4600F088F903B0BDE8F08F4046214628
:10023000F9E7001B61EB0201001C41F58013001877
:100240005B412018A2F5001747EB030140EAD57087
:10025000B6196D4111E06D084FEA360645EAC075E2
:100260004FEA0752001B61EB0201001C41F58011AF
:1002700049084FEA30000019514132462B4603B07D
:10028000BDE8F04F00F048B900980122400000237B
:10029000D0EB020263EBE073009821464FEAE07472
:1002A000B8EB000061EB0401E9E783F000435BE792
:1002B00081F0004158E72DE9FE4F81EA030404F084
:1002C000004421F0004100944FF0000B23F0004364
:1002D00050EA01045ED052EA03045BD0C3F30A542F
:1002E000C1F30A552C44A4F2F3340194A0FB025448
:1002F000C1F3130141F48011C3F3130343F48013DA
:1003000001FB024400FB034E840A970A44EA81542D
:1003100047EA8357A4FB076802958D0A05FB07850A
:100320004FEA932C04FB0C542705029D4FEA065814
:1003300047EA1637B5EB08056EEB070C870E920EF1
:1003400047EA811742EA8312A7FB0201B6EB0B01D1
:1003500064EB00042B0D43EA0C335E1844EB1C5095
:10036000DA465146E7FB0201C5F313044FEA0B33AB
:1003700043EA14534FEA0432019C43EA0603A4F112
:100380000C040294009CCDE900B400F0D4F803B052
:10039000BDE8F08F00200146F9E72DE9F04D81EA34
:1003A000030404F0004B21F0004514464FF0000A0E
:1003B00023F0004150EA050220D054EA01021DD08A
:1003C000C5F30A570246C5F31303C1F31300C1F383
:1003D0000A5640F4801543F48013A7EB0608101B5F
:1003E000D64608F2FD3873EB050002D308F1010888
:1003F00001E092185B41B8F1000F03DA00200146DA
:10040000BDE8F08D00204FF48011064684460EE0D2
:10041000171B73EB050705D3121B63EB050306439C
:100420004CEA010C49084FEA300092185B4150EA4F
:100430000107EDD152EA030012D082EA040083EAF8
:100440000501084305D0101BAB4106D20122002351
:1004500006E000224FF0004302E06FF0010253106B
:100460001AEB06004CEB085110EB0A0041EB0B01B4
:10047000BDE8F04D00F050B870B5C1F30A5201F07C
:1004800000450024C1F3130140F2FF3341F4801111
:100490009A4201DA002070BD40F233439A42A2F240
:1004A000334203DC524200F015F800E090402C4348
:1004B000F1D0404270BD202A04DB203A00FA02F15C
:1004C000002070479140C2F1200320FA03F3194342
:1004D00090407047202A04DB203A21FA02F00021E4
:1004E000704721FA02F3D040C2F120029140084344
:1004F00019467047202A06DBCB17203A41FA02F052
:1005000043EAE07306E041FA02F3D040C2F1200270
:10051000914008431946704710B5141E73F100044A
:1005200008DA401C41F1000192185B411A4301D1E5
:1005300020F0010010BD2DE9F04D92469B4611B10F
:10054000B1FA81F202E0B0FA80F220329046FFF771
:10055000B2FF04460F4640EA0A0041EA0B01534647
:100560005A46084313D0114653EA010019D0C8F186
:1005700040025046FFF7AEFF05460E46504659462C
:100580004246FFF798FF084305D0012004E02046CB
:100590003946BDE8F08D0020054346EAE0762C435D
:1005A00037430A986305E40AA0EB08000022FD0A1D
:1005B00044EA47540A3002D500200146E9E7010524
:1005C00010196941DDE9084500196941BDE8F04DA0
:1005D000A2E70000064C074D06E0E06840F001038A
:1005E00094E8070098471034AC42F6D3FFF7A4FD17
:1005F000380F0008580F000800BFFEE770B5054629
:100600000C46012D06D0022D0AD0032D0ED0042D4C
:1006100016D110E04FF48051854800F0DBFA0FE06E
:100620004FF40041834800F0D5FA09E020218148C9
:1006300000F0D0FA04E008217E4800F0CBFA00BFB9
:1006400000BF0A2C21D2DFE804F005212B425A6EAC
:1006500087A4B3D44FF40061754800F0B9FA1021B3
:10066000744800F0B5FA4FF40071724800F0B0FA27
:100670008021704800F0ACFA40216E4800F0A8FAE2
:100680004FF480716A4800F0A3FACFE01021694866
:1006900000F09EFA4FF40071664800F099FAC5E048
:1006A0004FF40061624800F093FA1021614800F0B5
:1006B0008FFA80215F4800F08BFA40215D4800F0FE
:1006C00087FA4FF400415A4800F082FAAEE04FF446
:1006D0000061574800F07CFA1021564800F078FA83
:1006E0004FF40071534800F073FA8021514800F034
:1006F0006FFA4FF400414E4800F06AFA96E010217C
:100700004C4800F065FA4FF400714A4800F060FA76
:100710004FF48071464800F05BFA4FF400414448C2
:1007200000F056FA82E04FF40061414800F050FAC0
:100730004FF400713F4800F04BFA80213D4800F033
:1007400047FA4FF480713A4800F042FA4FF4004102
:10075000374800F03DFA69E04FF40061344800F09A
:1007600037FA4FF40071334800F032FA80213148F3
:1007700000F02EFA40212F4800F02AFA4FF4807141
:100780002B4800F025FA4FF40041294800F020FAE8
:100790004CE04FF40061264800F01AFA1021254879
:1007A00000F016FA4FF40071224800F011FA3DE013
:1007B0004FF400611E4800F00BFA10211D4800F0B4
:1007C00007FA4FF400711B4800F002FA8021194823
:1007D00000F0FEF94021174800F0FAF94FF480715B
:1007E000134800F0F5F94FF40041114800F0F0F91A
:1007F0001CE04FF400610E4800F0EAF910210D48AA
:1008000000F0E6F94FF400710A4800F0E1F98021A8
:10081000084800F0DDF94FF48071054800F0D8F980
:100820004FF40041024800F0D3F900BF00BF70BD93
:1008300000080140000C014010B54021184800F0AC
:10084000C9F98021164800F0C5F94FF40071144829
:1008500000F0C0F94FF40041124800F0BBF910213C
:100860000F4800F0B7F94FF480710E4800F0B2F96C
:100870004FF400610B4800F0ADF90821084800F082
:10088000A7F92021064800F0A3F94FF400410448DD
:1008900000F09EF94FF48051024800F099F910BD24
:1008A000000C01400008014008B501210C2000F0B7
:1008B000D7F94020ADF8000010208DF80300032088
:1008C0008DF802006946414800F0EEF88020ADF84E
:1008D000000069463D4800F0E7F84FF40070ADF8BD
:1008E00000006946394800F0DFF84FF40040ADF8E9
:1008F00000006946364800F0D7F81020ADF8000037
:100900006946324800F0D0F84FF48070ADF800002E
:1009100069462F4800F0C8F84FF40060ADF80000B9
:1009200069462B4800F0C0F80820ADF80000694681
:10093000264800F0B9F82020ADF8000069462348A9
:1009400000F0B2F84FF40040ADF8000069461F48CF
:1009500000F0AAF84FF48050ADF8000069461C483A
:1009600000F0A2F84021194800F034F9802117481E
:1009700000F030F94FF40071144800F02BF94FF4F7
:100980000041134800F026F91021104800F022F928
:100990004FF480710E4800F01DF94FF400610C48CF
:1009A00000F018F90821094800F012F92021074841
:1009B00000F00EF94FF40041044800F009F94FF43B
:1009C0008051034800F004F908BD0000000C01400C
:1009D000000801407047002000E0401CB0F5805F37
:1009E000FBDB704704460D4600222C4B204629466F
:1009F000FFF761FC0746FFF73FFD0A2190FBF1F28C
:100A000001FB120B0022264B20462946FFF753FC20
:100A10000746FFF731FD0A2190FBF1F201FB120AB4
:100A20000022204B20462946FFF745FC0746FFF7EA
:100A300023FD0A2190FBF1F201FB12090022184B61
:100A400020462946FFF7A9FC0746FFF715FD0A21B6
:100A500090FBF1F201FB12061FE031460120FFF787
:100A6000CDFDFFF7B8FFFFF7E7FE49460220FFF78D
:100A7000C5FDFFF7B0FFFFF7DFFE51460320FFF78C
:100A8000BDFDFFF7A8FFFFF7D7FE59460420FFF78B
:100A9000B5FDFFF7A0FFFFF7CFFEDEE700005940EE
:100AA000000024400000F03F2DE9F04102460025FF
:100AB0000026002000230024002791F803C00CF03A
:100AC0000F0591F803C00CF0100CBCF1000F03D01F
:100AD00091F802C04CEA050591F800C0BCF1000F86
:100AE00031D0146800202BE04FF0010C0CFA00F319
:100AF000B1F800C00CEA03069E4220D183004FF0FB
:100B00000F0C0CFA03F7BC4305FA03FC4CEA04048F
:100B100091F803C0BCF1280F06D14FF0010C0CFA7C
:100B200000FCC2F814C00AE091F803C0BCF1480F01
:100B300005D14FF0010C0CFA00FCC2F810C0401CAB
:100B40000828D1D31460B1F800C0BCF1FF0F34DD28
:100B5000546800202EE000F1080C4FF0010808FA5C
:100B60000CF3B1F800C00CEA03069E4221D18300C9
:100B70004FF00F0C0CFA03F7BC4305FA03FC4CEAE8
:100B8000040491F803C0BCF1280F05D100F1080C52
:100B900008FA0CF8C2F8148091F803C0BCF1480FB1
:100BA00007D100F1080C4FF0010808FA0CF8C2F860
:100BB0001080401C0828CED35460BDE8F081024666
:100BC000002093680B400BB1012000E0002070472B
:100BD000416170470161704700BFFEE708B5012120
:100BE000082000F03DF810208DF8030003208DF858
:100BF00002004FF40050ADF8000069460A48FFF7C4
:100C000053FF4FF48040ADF8000069460648FFF7F7
:100C10004BFF4FF480410448FFF7DAFF4FF40051D7
:100C20000148FFF7D5FF08BD000C014008B50121C0
:100C3000042000F015F82020ADF8000004208DF805
:100C4000030003208DF8020069460248FFF72CFFDD
:100C500008BD00000008014000BFFEE77047704774
:100C600029B1064A92690243044B9A6104E0034A9F
:100C700092698243014B9A61704700000010024064
:100C8000704710B500F002F810BD00000CB5002050
:100C9000019000903348006840F48030314908608A
:100CA00000BF3048006800F4003000900198401CFC
:100CB0000190009818B90198B0F5A06FF1D12948BA
:100CC000006800F4003010B10120009001E0002025
:100CD00000900098012843D12348006840F010009C
:100CE000214908600846006820F0030008600846B3
:100CF000006840F0020008601A48406819494860DE
:100D00000846406848600846406840F48060486093
:100D10000846406820F47C1048600846406840F46B
:100D2000E81048600846006840F08070086000BF26
:100D30000C48006800F000700028F9D009484068AD
:100D400020F00300074948600846406840F0020070
:100D5000486000BF0348406800F00C000828F9D143
:100D60000CBD00000010024000200240704700004F
:100D700010B51348006840F00100114908600846AA
:100D80004068104908400E494860084600680E490E
:100D900008400B4908600846006820F4802008607D
:100DA0000846406820F4FE0048604FF41F00886049
:100DB000FFF767FF4FF000600449086010BD0000B6
:100DC000001002400000FFF8FFFFF6FE08ED00E013
:100DD00000BFFEE702E008C8121F08C1002AFAD1CE
:100DE00070477047002001E001C1121F002AFBD1AB
:100DF0007047000070B53A4800684FF47A72B0FB53
:100E0000F2F1B1F1807F00D31DE021F07F40401E60
:100E10004FF0E022506150170F22002807DA130725
:100E20001D0E304B00F00F04241F1D5503E0130767
:100E30001C0E2D4B1C5400BF00204FF0E02290618F
:100E40000720106100BF40E028480068A0B92021B9
:100E50002748FFF7B4FE01280ED100BF2021244807
:100E6000FFF7ADFE0128F9D00120204908604103B9
:100E70002048FFF7AFFE28E01C480068012824D175
:100E800020211B48FFF79BFE01281ED10FE000BF69
:100E90004FF0E020006900F480300028F8D00022F4
:100EA000154B164903C9FFF75FF9144A03C2202105
:100EB0000F48FFF784FE0128E9D002200B490860A3
:100EC00001030C48FFF784FE00E0BDE700BF4FF0D0
:100ED000E020006920F001004FF0E021086170BDC2
:100EE0000000002018ED00E000E400E01800002001
:100EF00000080140000C01400000F03F20000020ED
:100F0000FFF794FEFFF76AFEFFF7CEFC0DE000202E
:100F100006490860FFF76EFF0022054B054903C92B
:100F2000FFF73BFA0446FFF75DFDF0E718000020ED
:100F300000408F4020000020580F000800000020D3
:100F400028000000D40D0008800F000828000020B1
:100F500000040000E40D000800A24A0400000000A4
:100F60000000000001020304060708090000000059
:100F70000000000000000000000000000000000071
:0400000508000131BD
:00000001FF
