:020000040800F2
:100000003004002045010008ED0A0008B70A000886
:10001000E90A00089F0400088B1000080000000097
:10002000000000000000000000000000D90C0008E3
:100030005D07000800000000C30B0008C50D0008A4
:100040005F0100085F0100085F0100085F01000810
:100050005F0100085F010008FD0700085F0100085C
:100060005F0100085F0100085F0100085F010008F0
:100070005F0100085F0100085F0100085F010008E0
:100080005F0100085F0100085F0100085F010008D0
:100090005F0100085F0100085F0100085F010008C0
:1000A0005F0100085F0100085F0100085F010008B0
:1000B0005F0100085F0100085F0100085F010008A0
:1000C0005F0100085F0100085F0100085F01000890
:1000D0005F0100085F010008290E00085F010008A9
:1000E0005F0100085F0100085F0100085F01000870
:1000F0005F0100085F0100085F0100085F01000860
:100100005F0100085F0100085F0100085F0100084F
:100110005F0100085F0100085F0100085F0100083F
:100120005F0100085F0100085F0100085F0100082F
:10013000DFF80CD000F092F900480047AD1000083D
:10014000300400200648804706480047FEE7FEE7E7
:10015000FEE7FEE7FEE7FEE7FEE7FEE7FEE7FEE777
:10016000C90D0008310100082DE9FE4F81EA0304A2
:1001700004F0004421F0004100944FF0000B23F004
:10018000004350EA01045ED052EA03045BD0C3F39B
:100190000A54C1F30A552C44A4F2F3340194A0FB91
:1001A0000254C1F3130141F48011C3F3130343F468
:1001B000801301FB024400FB034E840A970A44EAC1
:1001C000815447EA8357A4FB076802958D0A05FB13
:1001D00007854FEA932C04FB0C542705029D4FEA38
:1001E000065847EA1637B5EB08056EEB070C870E85
:1001F000920E47EA811742EA8312A7FB0201B6EB8F
:100200000B0164EB00042B0D43EA0C335E1844EB46
:100210001C50DA465146E7FB0201C5F313044FEACE
:100220000B3343EA14534FEA0432019C43EA0603BA
:10023000A4F10C040294009CCDE900B400F0C0F8D5
:1002400003B0BDE8F08F00200146F9E72DE9F04D3D
:1002500081EA030404F0004B21F0004514464FF0FE
:10026000000A23F0004150EA050220D054EA0102BE
:100270001DD0C5F30A570246C5F31303C1F313009B
:10028000C1F30A5640F4801543F48013A7EB060827
:10029000101BD64608F2FD3873EB050002D308F1B7
:1002A000010801E092185B41B8F1000F03DA002069
:1002B0000146BDE8F08D00204FF4801106468446CB
:1002C0000EE0171B73EB050705D3121B63EB050349
:1002D00006434CEA010C49084FEA300092185B4192
:1002E00050EA0107EDD152EA030012D082EA04007D
:1002F00083EA0501084305D0101BAB4106D2012259
:10030000002306E000224FF0004302E06FF00102FC
:1003100053101AEB06004CEB085110EB0A0041EBAE
:100320000B01BDE8F04D00F03CB80EB540F2334192
:1003300002910021CDE900110A460B4600F040F879
:1003400003B000BD70B5C1F30A5201F000450024AE
:10035000C1F3130140F2FF3341F480119A4201DAF4
:10036000002070BD40F233439A42A2F2334203DCD4
:10037000524200F006F800E090402C43F1D0404299
:1003800070BD202A04DB203A21FA02F000217047D8
:1003900021FA02F3D040C2F12002914008431946ED
:1003A000704710B5141E73F1000408DA401C41F1C7
:1003B000000192185B411A4301D120F0010010BDE9
:1003C0002DE9F04D92469B4611B1B1FA81F202E05F
:1003D000B0FA80F22032904600F052F804460F4600
:1003E00040EA0A0041EA0B0153465A46084313D03B
:1003F000114653EA010019D0C8F140025046FFF7F8
:10040000C0FF05460E4650465946424600F038F8B1
:10041000084305D0012004E020463946BDE8F08DB0
:100420000020054346EAE0762C4337430A986305EB
:10043000E40AA0EB08000022FD0A44EA47540A300F
:1004400002D500200146E9E7010510196941DDE9FF
:10045000084500196941BDE8F04DA2E7064C074D7B
:1004600006E0E06840F0010394E807009847103484
:10047000AC42F6D3FFF760FEC0100008E0100008A1
:10048000202A04DB203A00FA02F100207047914054
:10049000C2F1200320FA03F319439040704700BFD4
:1004A000FEE7000010B504460A2C1ED2DFE804F077
:1004B000051E273C516277909DBA8021684800F064
:1004C000F6FA2021664800F0F2FA0821644800F0AC
:1004D000EEFA0421624800F0EAFA0221604800F0D6
:1004E000E6FA40215E4800F0E2FAB4E020215C48E0
:1004F00000F0DDFA08215A4800F0D9FAABE080217B
:10050000574800F0D4FA2021554800F0D0FA0421D1
:10051000534800F0CCFA0221514800F0C8FA1021EB
:100520004F4800F0C4FA96E080214D4800F0BFFA31
:1005300020214B4800F0BBFA0821494800F0B7FAE7
:100540000421474800F0B3FA1021454800F0AFFA03
:1005500081E02021424800F0AAFA0821404800F03A
:10056000A6FA40213E4800F0A2FA10213C4800F0D3
:100570009EFA70E080213A4800F099FA0821384844
:1005800000F095FA0421364800F091FA40213448F1
:1005900000F08DFA1021324800F089FA5BE08021EA
:1005A0002F4800F084FA08212D4800F080FA042139
:1005B0002B4800F07CFA0221294800F078FA40210B
:1005C000274800F074FA1021254800F070FA42E044
:1005D0008021234800F06BFA2021214800F067FABF
:1005E00008211F4800F063FA35E080211C4800F024
:1005F0005EFA20211A4800F05AFA0821184800F043
:1006000056FA0421164800F052FA0221144800F06C
:100610004EFA4021124800F04AFA1021104800F02A
:1006200046FA18E080210E4800F041FA20210C48DB
:1006300000F03DFA08210A4800F039FA0421084880
:1006400000F035FA4021064800F031FA1021044844
:1006500000F02DFA00BF00BF00F004F810BD00004C
:100660000008014010B502210D4800F022FA0421D3
:100670000B4800F01EFA0821094800F01AFA102170
:10068000074800F016FA2021054800F012FA402130
:10069000034800F00EFA8021014800F00AFA10BD6C
:1006A0000008014008B50121042000F09BFA022057
:1006B000ADF8000010208DF8030003208DF8020033
:1006C0006946254800F068F90420ADF80000694645
:1006D000214800F061F90820ADF8000069461E4885
:1006E00000F05AF91020ADF8000069461A4800F0F1
:1006F00053F92020ADF800006946174800F04CF986
:100700004020ADF800006946134800F045F980200C
:10071000ADF800006946104800F03EF902210E488D
:1007200000F0C7F904210C4800F0C3F908210A4879
:1007300000F0BFF91021084800F0BBF9202106485D
:1007400000F0B7F94021044800F0B3F980210248D5
:1007500000F0AFF908BD000000080140704700003C
:100760000022224B224903C9FFF7FEFC0746FFF790
:10077000E9FD0A2190FBF1F201FB120900221D4B59
:100780001B4903C9FFF7F0FC0746FFF7DBFD0A2111
:1007900090FBF1F201FB12060022174B144903C92A
:1007A000FFF7E2FC0746FFF7CDFD0A2190FBF1F2CF
:1007B00001FB120500220F4B0D4903C9FFF746FD4F
:1007C0000746FFF7BFFD0A2190FBF1F201FB12047F
:1007D0000BE02046FFF766FE2846FFF763FE304633
:1007E000FFF760FE4846FFF75DFEF2E70000594064
:1007F00028000020000024400000F03F70B50120D8
:1008000000F026F8A8B14FF0FF300A4908600968E7
:10081000094A1268881AFFF788FD04460022074B30
:10082000FFF714FD064A03C2FFF79AFF012000F00C
:1008300009F870BD1C00002018000020000059407D
:10084000280000200149086070470000140401409E
:10085000014600200022074B1B6803EA0102054BFA
:1008600014331B680B4013B10AB1012000E00020D3
:100870007047000000040140002123498279002ACA
:100880003AD00A46126803689A430B461A600A1D5A
:10089000126803689A430B1D1A60027911440A68B2
:1008A00003681A430A60184A0832126803689A43B8
:1008B000154B08331A601A1D126803689A43124BCD
:1008C0000C331A604279102A0ED11A1F126803687D
:1008D0001A430D4B08331A601A1D126803681A4335
:1008E000094B0C331A600DE00749427911440A683C
:1008F00003681A430A6005E0027911440A68036834
:100900009A430A6070470000000401400EB50121BF
:10091000092000F067F900F023F90120ADF8080084
:1009200004208DF80B0002A90A4800F035F80021D8
:10093000012000F011F80120009000208DF8040043
:1009400008208DF8050001208DF806006846FFF7A5
:1009500093FF0EBD000C014030B500228B071C0F29
:100960000F2303FA04F20B4B8C1053F824309343FB
:10097000084C8D1044F8253023468C1053F8243051
:100980008C07240F00FA04F42343024C8D1044F822
:10099000253030BD080001402DE9F0410246002518
:1009A0000026002000230024002791F803C00CF04B
:1009B0000F0591F803C00CF0100CBCF1000F03D030
:1009C00091F802C04CEA050591F800C0BCF1000F97
:1009D00031D0146800202BE04FF0010C0CFA00F32A
:1009E000B1F800C00CEA03069E4220D183004FF00C
:1009F0000F0C0CFA03F7BC4305FA03FC4CEA0404A1
:100A000091F803C0BCF1280F06D14FF0010C0CFA8D
:100A100000FCC2F814C00AE091F803C0BCF1480F12
:100A200005D14FF0010C0CFA00FCC2F810C0401CBC
:100A30000828D1D31460B1F800C0BCF1FF0F34DD39
:100A4000546800202EE000F1080C4FF0010808FA6D
:100A50000CF3B1F800C00CEA03069E4221D18300DA
:100A60004FF00F0C0CFA03F7BC4305FA03FC4CEAF9
:100A7000040491F803C0BCF1280F05D100F1080C63
:100A800008FA0CF8C2F8148091F803C0BCF1480FC2
:100A900007D100F1080C4FF0010808FA0CF8C2F871
:100AA0001080401C0828CED35460BDE8F08141611D
:100AB00070470161704700BFFEE7000008B50121E3
:100AC000082000F08FF80120ADF8000010208DF80C
:100AD000030003208DF8020069460248FFF75CFF1F
:100AE00008BD0000000C014000BFFEE77047000099
:100AF00070B5002100230F22C47804B3154C24687C
:100B000004F4E064C4F5E064210AC1F10403CA40BE
:100B1000447804FA03F184781440214309010E4C0F
:100B20000678A155047804F01F050124AC4005782F
:100B30006D11AD0005F1E025C5F8004109E004782C
:100B400004F01F050124AC40044D0678761145F8E9
:100B5000264070BD0CED00E000E400E080E100E024
:100B600008B54FF4C06000F00FF806208DF80000C3
:100B700001208DF801008DF802008DF80300684611
:100B8000FFF7B6FF08BD000002490143024A1160A9
:100B9000704700000000FA050CED00E008B54FF4C6
:100BA000A060FFF7F1FF26208DF8000001208DF8EE
:100BB00001008DF802008DF803006846FFF798FFEA
:100BC00008BD704729B1064AD2690243044BDA6175
:100BD00004E0034AD2698243014BDA6170470000A6
:100BE0000010024029B1064A92690243044B9A61FF
:100BF00004E0034A92698243014B9A617047000006
:100C00000010024030B500210022002400232D4DA9
:100C10006D6805F00C0121B1042905D0082923D104
:100C200005E0294D056022E0274D05601FE0254DB8
:100C30006D6805F47012234D6D6805F4803402254B
:100C400005EB92421CB9214D554305600BE01D4D4B
:100C50006D6805F400351DB11C4D5543056002E07B
:100C6000194D5543056002E0174D056000BF00BFF8
:100C7000144D6D6805F0F0010909154D6B5C0568B0
:100C8000DD4045600F4D6D6805F4E061090A104DC7
:100C90006B5C4568DD4085600A4D6D6805F4605108
:100CA000C90A0B4D6B5C4568DD40C560054D6D683C
:100CB00005F44041890B074D6B5CC568B5FBF3F546
:100CC000056130BD0010024000127A0000093D00AD
:100CD0000000002010000020704710B500F002F85E
:100CE00010BD00000CB50020019000903348006852
:100CF00040F480303149086000BF3048006800F49B
:100D0000003000900198401C0190009818B901989B
:100D1000B0F5A06FF1D12948006800F4003010B19F
:100D20000120009001E0002000900098012843D1AC
:100D30002348006840F01000214908600846006818
:100D400020F0030008600846006840F002000860D8
:100D50001A48406819494860084640684860084693
:100D6000406840F4806048600846406820F47C1089
:100D700048600846406840F4E8104860084600684B
:100D800040F08070086000BF0C48006800F0007000
:100D90000028F9D00948406820F00300074948605E
:100DA0000846406840F00200486000BF03484068C1
:100DB00000F00C000828F9D10CBD00000010024022
:100DC000002002407047000010B51348006840F052
:100DD00001001149086008464068104908400E4962
:100DE0004860084600680E4908400B4908600846FC
:100DF000006820F4802008600846406820F4FE0067
:100E000048604FF41F008860FFF767FF4FF00060F5
:100E10000449086010BD0000001002400000FFF807
:100E2000FFFFF6FE08ED00E010B540F225510A483C
:100E300000F06AF878B1084800F022F9C4B2732CC7
:100E400009D10648006830B94FF0FF300449086006
:100E500001200249086010BD00440040200000202D
:100E60001800002021B1828942F40052828104E0FE
:100E700082894DF6FF731A408281704700B585B0B4
:100E800001210420FFF7AEFE01214804FFF79AFE7E
:100E90000420ADF8100018208DF8130003208DF801
:100EA000120004A91648FFF777FD0820ADF81000DE
:100EB00004208DF8130004A91148FFF76DFD4FF4CD
:100EC000E13000900020ADF80400ADF80600ADF868
:100ED0000800ADF80C000C20ADF80A00694609487E
:100EE00000F062F8FFF75AFE012240F22551054852
:100EF00000F034F801210348FFF7B4FF05B000BD4E
:100F0000000801400044004070B502460024002360
:100F10000025002040F66A16B14200D100BFC1F39F
:100F2000421501F01F03012606FA03F3012D02D139
:100F30009689334006E0022D02D1168A334001E043
:100F4000968A33400C12012606FA04F416883440BF
:100F500013B10CB1012000E0002070BDF0B50346D4
:100F6000002400260025002040F66A17B94200D16F
:100F700000BF1846C1F3421401F01F06012707FA0B
:100F800006F5012C01D10C3004E0022C01D1103007
:100F900000E014301AB107682F43076002E00768C9
:100FA000AF430760F0BD00002DE9F04786B005466D
:100FB0000E460024A24600BFA1460027B08900B11A
:100FC00000BF2F462C8A4CF6FF700440F088044383
:100FD0002C82AC894EF6F3100440B0883189084366
:100FE000718908430443AC81AC8A4FF6FF4004404A
:100FF000B0890443AC8201A8FFF704FE1F48874272
:1010000002D1DDF810A001E0DDF80CA0A88900F401
:10101000004040B10AEBCA0000EB0A1031684900F9
:10102000B0FBF1F807E00AEBCA0000EB0A103168E8
:101030008900B0FBF1F86420B8FBF0F0040120094E
:10104000642101FB1089A88900F4004040B13220DE
:1010500000EBC900B0FBF1F000F00700044308E02A
:10106000322000EB09106421B0FBF1F000F00F001A
:1010700004432C8106B0BDE8F08700000038014031
:1010800001468888C0F30800704700BFFEE702E011
:1010900008C8121F08C1002AFAD170477047002003
:1010A00001E001C1121F002AFBD17047FFF706FDC6
:1010B000FFF7E4FEFFF7F6FAFFF728FC00BFFEE7B4
:1010C000E010000800000020300000008E10000832
:1010D0001011000830000020000400009E100008DD
:1010E00000000000010203040102030406070809CE
:1010F00002040608000000000000000000000000DC
:1011000000000000000000000000000000000000DF
:0400000508000131BD
:00000001FF
