:020000040800F2
:100000003804002045010008D908000853080008FA
:10001000D5080008F9050008A10D0008000000003F
:10002000000000000000000000000000D1090008EE
:100030002107000800000000DB080008BD0A0008D6
:100040005F0100085F0100085F0100085F01000810
:100050005F0100085F0100085F0100085F01000800
:100060005F0100085F0100085F0100085F010008F0
:100070005F0100085F0100085F0100085F010008E0
:100080005F0100085F0100085F0100085F010008D0
:100090005F0100085F0100085F0100085F010008C0
:1000A0005F0100085F0100085F0100085F010008B0
:1000B0005F0100085F0100085F0100085F010008A0
:1000C0005F0100085F0100085F0100085F01000890
:1000D0005F0100085F0100085F0100085F01000880
:1000E0005F0100085F0100085F0100085F01000870
:1000F0005F0100085F0100085F0100085F01000860
:100100005F0100085F0100085F0100085F0100084F
:100110005F0100085F0100085F0100085F0100083F
:100120005F0100085F0100085F0100085F0100082F
:10013000DFF80CD000F04EFA00480047D10E00085E
:10014000380400200648804706480047FEE7FEE7DF
:10015000FEE7FEE7FEE7FEE7FEE7FEE7FEE7FEE777
:10016000C10A0008310100082DE9FE4F804681EAEE
:100170000300C00F0C46009021F0004123F0004521
:10018000B8EB0200A94105D24046214690461C46E4
:100190000B46024623F00040104347D0270DC7F31B
:1001A0000A00C3F30A510290401A019040286BDA0A
:1001B000C3F3130040F4801B0098924620B1002343
:1001C000D2EB030A63EB0B0B01985946C0F14002D6
:1001D000504600F070F906460D4650465946019AC1
:1001E00000F088F910EB08006141002487EA115201
:1001F00084EAE7731A4340D0009A62B3019A012A55
:100200004FEA075215DC001B61EB02014FF0004280
:1002100002EA0752CDE90042001C41F58011324646
:100220002B4600F088F903B0BDE8F08F4046214628
:10023000F9E7001B61EB0201001C41F58013001877
:100240005B412018A2F5001747EB030140EAD57087
:10025000B6196D4111E06D084FEA360645EAC075E2
:100260004FEA0752001B61EB0201001C41F58011AF
:1002700049084FEA30000019514132462B4603B07D
:10028000BDE8F04F00F048B900980122400000237B
:10029000D0EB020263EBE073009821464FEAE07472
:1002A000B8EB000061EB0401E9E783F000435BE792
:1002B00081F0004158E72DE9FE4F81EA030404F084
:1002C000004421F0004100944FF0000B23F0004364
:1002D00050EA01045ED052EA03045BD0C3F30A542F
:1002E000C1F30A552C44A4F2F3340194A0FB025448
:1002F000C1F3130141F48011C3F3130343F48013DA
:1003000001FB024400FB034E840A970A44EA81542D
:1003100047EA8357A4FB076802958D0A05FB07850A
:100320004FEA932C04FB0C542705029D4FEA065814
:1003300047EA1637B5EB08056EEB070C870E920EF1
:1003400047EA811742EA8312A7FB0201B6EB0B01D1
:1003500064EB00042B0D43EA0C335E1844EB1C5095
:10036000DA465146E7FB0201C5F313044FEA0B33AB
:1003700043EA14534FEA0432019C43EA0603A4F112
:100380000C040294009CCDE900B400F0D4F803B052
:10039000BDE8F08F00200146F9E72DE9F04D81EA34
:1003A000030404F0004B21F0004514464FF0000A0E
:1003B00023F0004150EA050220D054EA01021DD08A
:1003C000C5F30A570246C5F31303C1F31300C1F383
:1003D0000A5640F4801543F48013A7EB0608101B5F
:1003E000D64608F2FD3873EB050002D308F1010888
:1003F00001E092185B41B8F1000F03DA00200146DA
:10040000BDE8F08D00204FF48011064684460EE0D2
:10041000171B73EB050705D3121B63EB050306439C
:100420004CEA010C49084FEA300092185B4150EA4F
:100430000107EDD152EA030012D082EA040083EAF8
:100440000501084305D0101BAB4106D20122002351
:1004500006E000224FF0004302E06FF0010253106B
:100460001AEB06004CEB085110EB0A0041EB0B01B4
:10047000BDE8F04D00F050B870B5C1F30A5201F07C
:1004800000450024C1F3130140F2FF3341F4801111
:100490009A4201DA002070BD40F233439A42A2F240
:1004A000334203DC524200F015F800E090402C4348
:1004B000F1D0404270BD202A04DB203A00FA02F15C
:1004C000002070479140C2F1200320FA03F3194342
:1004D00090407047202A04DB203A21FA02F00021E4
:1004E000704721FA02F3D040C2F120029140084344
:1004F00019467047202A06DBCB17203A41FA02F052
:1005000043EAE07306E041FA02F3D040C2F1200270
:10051000914008431946704710B5141E73F100044A
:1005200008DA401C41F1000192185B411A4301D1E5
:1005300020F0010010BD2DE9F04D92469B4611B10F
:10054000B1FA81F202E0B0FA80F220329046FFF771
:10055000B2FF04460F4640EA0A0041EA0B01534647
:100560005A46084313D0114653EA010019D0C8F186
:1005700040025046FFF7AEFF05460E46504659462C
:100580004246FFF798FF084305D0012004E02046CB
:100590003946BDE8F08D0020054346EAE0762C435D
:1005A00037430A986305E40AA0EB08000022FD0A1D
:1005B00044EA47540A3002D500200146E9E7010524
:1005C00010196941DDE9084500196941BDE8F04DA0
:1005D000A2E70000064C074D06E0E06840F001038A
:1005E00094E8070098471034AC42F6D3FFF7A4FD17
:1005F000240F0008440F000800BFFEE708B50121E2
:100600000C2000F06BF90420ADF8000010208DF8EC
:10061000030003208DF8020069463F4800F081F88E
:100620000220ADF8000069463B4800F07AF820202F
:10063000ADF800006946384800F073F84020ADF886
:1006400000006946344800F06CF84FF40070ADF8D3
:1006500000006946304800F064F84020ADF8000022
:1006600069462E4800F05DF84FF48070ADF8000048
:1006700069462A4800F055F88020ADF80000694628
:10068000254800F04EF84FF48070ADF80000694640
:10069000214800F046F88020ADF8000069461F4868
:1006A00000F03FF84FF40040ADF8000069461A48EA
:1006B00000F037F80421184800F0C9F80221164864
:1006C00000F0C5F82021144800F0C1F8402112487C
:1006D00000F0BDF84FF400710F4800F0B8F8402169
:1006E0000E4800F0B4F84FF480710C4800F0AFF8F9
:1006F0008021094800F0A9F84FF48071064800F005
:10070000A4F88021054800F0A0F84FF40041024809
:1007100000F09BF808BD0000000C014000080140FB
:1007200070472DE9F04102460025002600200023F5
:100730000024002791F803C00CF00F0591F803C0C6
:100740000CF0100CBCF1000F03D091F802C04CEA81
:10075000050591F800C0BCF1000F31D014680020ED
:100760002BE04FF0010C0CFA00F3B1F800C00CEADA
:1007700003069E4220D183004FF00F0C0CFA03F7C2
:10078000BC4305FA03FC4CEA040491F803C0BCF135
:10079000280F06D14FF0010C0CFA00FCC2F814C06F
:1007A0000AE091F803C0BCF1480F05D14FF0010CED
:1007B0000CFA00FCC2F810C0401C0828D1D3146009
:1007C000B1F800C0BCF1FF0F34DD546800202EE00A
:1007D00000F1080C4FF0010808FA0CF3B1F800C062
:1007E0000CEA03069E4221D183004FF00F0C0CFA55
:1007F00003F7BC4305FA03FC4CEA040491F803C078
:10080000BCF1280F05D100F1080C08FA0CF8C2F869
:10081000148091F803C0BCF1480F07D100F1080C17
:100820004FF0010808FA0CF8C2F81080401C0828A4
:10083000CED35460BDE8F0810246002093680B409F
:100840000BB1012000E00020704741617047016159
:10085000704700BFFEE7000008B50121082000F046
:100860003DF810208DF8030003208DF802004FF4AE
:100870000050ADF8000069460A48FFF752FF4FF4F8
:100880008040ADF8000069460648FFF74AFF4FF484
:1008900080410448FFF7D9FF4FF400510148FFF7AA
:1008A000D4FF08BD000C014008B50121042000F070
:1008B00015F82020ADF8000004208DF80300032077
:1008C0008DF8020069460248FFF72BFF08BD0000C3
:1008D0000008014000BFFEE77047704729B1064A93
:1008E00092690243044B9A6104E0034A926982438D
:1008F000014B9A61704700000010024030B50021A2
:100900000022002400232D4D6D6805F00C0121B15B
:10091000042905D0082923D105E0294D056022E0EE
:10092000274D05601FE0254D6D6805F47012234DBD
:100930006D6805F48034022505EB92421CB9214D07
:10094000554305600BE01D4D6D6805F400351DB184
:100950001C4D5543056002E0194D5543056002E00A
:10096000174D056000BF00BF144D6D6805F0F00124
:100970000909154D6B5C0568DD4045600F4D6D68DC
:1009800005F4E061090A104D6B5C4568DD40856047
:100990000A4D6D6805F46051C90A0B4D6B5C4568E2
:1009A000DD40C560054D6D6805F44041890B074D7C
:1009B0006B5CC568B5FBF3F5056130BD0010024006
:1009C00000127A0000093D001400002024000020DD
:1009D000704710B500F002F810BD00000CB5002003
:1009E000019000903348006840F48030314908603D
:1009F00000BF3048006800F4003000900198401CAF
:100A00000190009818B90198B0F5A06FF1D129486C
:100A1000006800F4003010B10120009001E00020D7
:100A200000900098012843D12348006840F010004E
:100A3000214908600846006820F003000860084665
:100A4000006840F0020008601A4840681949486090
:100A50000846406848600846406840F48060486046
:100A60000846406820F47C1048600846406840F41E
:100A7000E81048600846006840F08070086000BFD9
:100A80000C48006800F000700028F9D00948406860
:100A900020F00300074948600846406840F0020023
:100AA000486000BF0348406800F00C000828F9D1F6
:100AB0000CBD000000100240002002407047000002
:100AC00010B51348006840F001001149086008465D
:100AD0004068104908400E494860084600680E49C1
:100AE00008400B4908600846006820F48020086030
:100AF0000846406820F4FE0048604FF41F008860FC
:100B0000FFF767FF4FF000600449086010BD000068
:100B1000001002400000FFF8FFFFF6FE08ED00E0C5
:100B200021B1828942F40052828104E082894DF62B
:100B3000FF731A408281704700B585B001210420FF
:100B4000FFF7CCFE01218803FFF7C8FE4FF40070C9
:100B5000ADF8100018208DF8130003208DF8120056
:100B600004A91348FFF7DDFD4FF48060ADF81000D5
:100B700004208DF8130004A90D48FFF7D2FD4FF4AF
:100B8000E13000900020ADF80400ADF80600ADF8AB
:100B90000800ADF80C000C20ADF80A0069460548C5
:100BA00000F018F801210348FFF7BAFF05B000BDB7
:100BB000000801400038014002460020B1F5007FE6
:100BC00000D100BF13880B400BB1012000E00020D2
:100BD000704700002DE9F04786B005460E46002418
:100BE000A24600BFA1460027B08900B100BF2F4632
:100BF0002C8A4CF6FF700440F08804432C82AC89A8
:100C00004EF6F3100440B0883189084371890843D7
:100C10000443AC81AC8A4FF6FF400440B0890443E2
:100C2000AC8201A8FFF76AFE1F48874202D1DDF8B7
:100C300010A001E0DDF80CA0A88900F4004040B14C
:100C40000AEBCA0000EB0A1031684900B0FBF1F86A
:100C500007E00AEBCA0000EB0A1031688900B0FB1C
:100C6000F1F86420B8FBF0F004012009642101FBD5
:100C70001089A88900F4004040B1322000EBC9007F
:100C8000B0FBF1F000F00700044308E0322000EB75
:100C900009106421B0FBF1F000F00F0004432C8137
:100CA00006B0BDE8F087000000380140C1F308023B
:100CB0008280704770B504460D4629462046FFF7EE
:100CC000F5FF00BF80212046FFF776FF0028F9D00E
:100CD00070BD00002DE9F05F14461D4600222C4B2C
:100CE00020462946FFF7E7FA0746FFF7C5FB0A212A
:100CF00090FBF1F201FB1200303000F0FF0B0022FC
:100D0000244B20462946FFF7D6FA0746FFF7B4FBE7
:100D10000A2190FBF1F201FB1200303000F0FF0AD3
:100D200000221D4B20462946FFF7C5FA0746FFF76C
:100D3000A3FB0A2190FBF1F201FB1200303000F01E
:100D4000FF090022134B20462946FFF726FB0746E2
:100D5000FFF792FB0A2190FBF1F201FB1200303009
:100D6000C6B231460D48FFF7A5FF49460B48FFF7CD
:100D7000A1FF51460948FFF79DFF59460748FFF775
:100D800099FF0A210548FFF795FFBDE8F09F000095
:100D900000005940000024400000F03F00380140AE
:100DA00000BFFEE702E008C8121F08C1002AFAD1FE
:100DB00070477047002001E001C1121F002AFBD1DB
:100DC0007047000070B53A4800684FF47A72B0FB83
:100DD000F2F1B1F1807F00D31DE021F07F40401E91
:100DE0004FF0E022506150170F22002807DA130756
:100DF0001D0E304B00F00F04241F1D5503E0130798
:100E00001C0E2D4B1C5400BF00204FF0E0229061BF
:100E10000720106100BF40E028480068A0B92021E9
:100E20002748FFF709FD01280ED100BF20212448E3
:100E3000FFF702FD0128F9D0012020490860410395
:100E40002048FFF704FD28E01C480068012824D151
:100E500020211B48FFF7F0FC01281ED10FE000BF46
:100E60004FF0E020006900F480300028F8D0002224
:100E7000154B164903C9FFF777F9144A03C220211D
:100E80000F48FFF7D9FC0128E9D002200B49086080
:100E900001030C48FFF7D9FC00E0BDE700BF4FF0AD
:100EA000E020006920F001004FF0E021086170BDF2
:100EB0000000002018ED00E000E400E02800002021
:100EC00000080140000C01400000F03F300000200D
:100ED000FFF7EAFCFFF7C0FCFFF790FBFFF72CFEE3
:100EE00000200C49086014E000210B4A1160516099
:100EF000FFF768FF0022094B074903C9FFF74DFAC6
:100F0000044622460B460648FFF7E4FE012001494D
:100F10000860E9E7280000203000002000408F40F2
:100F200000380140440F0008000000203800000095
:100F3000A40D00087C0F0008380000200004000009
:100F4000B40D000800A24A040000000000000000E8
:100F5000010203040607080900000000010203045F
:100F60000102030406070809020406080000000045
:0C0F700000000000000000000000000075
:0400000508000131BD
:00000001FF
